# With validation enabled

iCONNECT
I8=FIX.4.4|35=A|34=1|49=TW|52=<TIME>|56=ISLD|98=0|108=30|
E8=FIX.4.4|9=61|35=A|34=1|49=ISLD|52=00000000-00:00:00.000|56=TW|98=0|108=30|10=0|
I8=FIX.4.4|35=1|34=2|49=TW|52=<TIME>|56=ISLD|112=|
E8=FIX.4.4|9=107|35=3|34=2|49=ISLD|52=20230713-04:30:17.816|56=TW|45=2|58=Tag specified without a value|371=112|372=1|373=4|10=0|

# logout message and response
I8=FIX.4.4|35=5|34=3|49=TW|52=<TIME>|56=ISLD|
E8=FIX.4.4|9=49|35=5|34=3|49=ISLD|52=00000000-00:00:00.000|56=TW|10=0|
eDISCONNECT

# With validation disabled

iCONNECT
I8=FIX.4.4|35=A|34=1|49=NO_CHECK_FIELDS_HAVE_VALUES|52=<TIME>|56=ISLD|98=0|108=30|
E8=FIX.4.4|9=86|35=A|34=1|49=ISLD|52=00000000-00:00:00.000|56=NO_CHECK_FIELDS_HAVE_VALUES|98=0|108=30|10=0|
I8=FIX.4.4|35=1|34=2|49=NO_CHECK_FIELDS_HAVE_VALUES|52=<TIME>|56=ISLD|112=|
E8=FIX.4.4|9=79|35=0|34=2|49=ISLD|52=20230713-04:33:07.326|56=NO_CHECK_FIELDS_HAVE_VALUES|112=|10=0|

# logout message and response
I8=FIX.4.4|35=5|34=3|49=NO_CHECK_FIELDS_HAVE_VALUES|52=<TIME>|56=ISLD|
E8=FIX.4.4|9=74|35=5|34=3|49=ISLD|52=00000000-00:00:00.000|56=NO_CHECK_FIELDS_HAVE_VALUES|10=0|
eDISCONNECT