# if the message sequence number is too high, respond with long and send
# resend request

iCONNECT
I8=FIX.4.4|35=A|34=5|49=TW|52=<TIME>|56=ISLD|98=0|108=30|
E8=FIX.4.4|9=61|35=A|34=1|49=ISLD|52=00000000-00:00:00.000|56=TW|98=0|108=30|10=0|
E8=FIX.4.4|9=58|35=2|34=2|49=ISLD|52=00000000-00:00:00.000|56=TW|7=1|16=0|10=0|

# logout message and response
I8=FIX.4.4|35=5|34=6|49=TW|52=<TIME>|56=ISLD|
E8=FIX.4.4|9=49|35=5|34=3|49=ISLD|52=00000000-00:00:00.000|56=TW|10=0|
eDISCONNECT
