# Send message with invalid MsgType

iCONNECT
I8=FIX.4.4|35=A|34=1|49=TW44|52=<TIME>|56=ISLD|98=0|108=30|
E8=FIX.4.4|9=63|35=A|34=1|49=ISLD|52=00000000-00:00:00.000|56=TW44|98=0|108=30|10=0|
I8=FIX.4.4|35=*|34=2|49=TW44|52=<TIME>|56=ISLD|
# reject
E8=FIX.4.4|9=88|35=3|34=2|49=ISLD|52=00000000-00:00:00.000|56=TW44|45=2|58=Invalid MsgType|372=*|373=11|10=0|

# logoff
I8=FIX.4.4|35=5|34=3|49=TW44|52=<TIME>|56=ISLD|
E8=FIX.4.4|9=51|35=5|34=3|49=ISLD|52=00000000-00:00:00.000|56=TW44|10=0|
eDISCONNECT