# If message sequence number is too high, send a resend request for
# missing messages

iCONNECT
I8=FIX.4.0|35=A|34=1|49=TW|52=<TIME>|56=ISLD|98=0|108=30|
E8=FIX.4.0|9=57|35=A|34=1|49=ISLD|52=00000000-00:00:00|56=TW|98=0|108=30|10=0|

I8=FIX.4.0|35=D|34=2|49=TW|52=<TIME>|56=ISLD|11=ID|21=3|38=100|40=1|54=1|55=INTC|
E8=FIX.4.0|9=81|35=D|34=2|49=ISLD|52=00000000-00:00:00|56=TW|11=ID|21=3|38=100|40=1|54=1|55=INTC|10=0|

I8=FIX.4.0|35=D|34=3|49=TW|52=<TIME>|56=ISLD|11=ID|21=3|38=100|40=1|54=1|55=INTC|
E8=FIX.4.0|9=81|35=D|34=3|49=ISLD|52=00000000-00:00:00|56=TW|11=ID|21=3|38=100|40=1|54=1|55=INTC|10=0|

# Sending message 7 when last message sent was 3
I8=FIX.4.0|35=0|34=7|49=TW|52=<TIME>|56=ISLD|

# Receive Resend request for messages 4 to 6
E8=FIX.4.0|9=59|35=2|34=4|49=ISLD|52=00000000-00:00:00|56=TW|7=4|16=999999|10=0|
# Send Resend request for messages 2 to 3
I8=FIX.4.0|35=2|34=8|49=TW|52=<TIME>|56=ISLD|7=2|16=3|

E8=FIX.4.0|9=108|35=D|34=2|43=Y|49=ISLD|52=00000000-00:00:00|56=TW|122=00000000-00:00:00|11=ID|21=3|38=100|40=1|54=1|55=INTC|10=0|
E8=FIX.4.0|9=108|35=D|34=3|43=Y|49=ISLD|52=00000000-00:00:00|56=TW|122=00000000-00:00:00|11=ID|21=3|38=100|40=1|54=1|55=INTC|10=0|

I8=FIX.4.0|35=0|34=4|43=Y|49=TW|52=<TIME>|122=<TIME>|56=ISLD|
I8=FIX.4.0|35=0|34=5|43=Y|49=TW|52=<TIME>|122=<TIME>|56=ISLD|
I8=FIX.4.0|35=0|34=6|43=Y|49=TW|52=<TIME>|122=<TIME>|56=ISLD|

# logout message and response
I8=FIX.4.0|35=5|34=7|49=TW|52=<TIME>|56=ISLD|
E8=FIX.4.0|9=45|35=5|34=5|49=ISLD|52=00000000-00:00:00|56=TW|10=0|

eDISCONNECT