# If message sequence number is too low, we must disconnect

iCONNECT
I8=FIX.4.0|35=A|34=1|49=TW|52=<TIME>|56=ISLD|98=0|108=30|
E8=FIX.4.0|9=57|35=A|34=1|49=ISLD|52=00000000-00:00:00|56=TW|98=0|108=30|10=0|
I8=FIX.4.0|35=0|34=2|49=TW|52=<TIME>|56=ISLD|
I8=FIX.4.0|35=0|34=3|49=TW|52=<TIME>|56=ISLD|
I8=FIX.4.0|35=0|34=4|49=TW|52=<TIME>|56=ISLD|
# Message 2 was already sent
I8=FIX.4.0|35=0|34=2|49=TW|52=<TIME>|56=ISLD|
E8=FIX.4.0|9=94|35=5|34=2|49=ISLD|52=00000000-00:00:00|56=TW|58=MsgSeqNum too low, expecting 5 but received 2|10=0|
eDISCONNECT