# PossDupFlag is set to 'Y', OrigSendingTime is does not exist
# A Reject message must be sent.

iCONNECT
I8=FIX.4.0|35=A|34=1|49=TW|52=<TIME>|56=ISLD|98=0|108=30|
E8=FIX.4.0|9=57|35=A|34=1|49=ISLD|52=00000000-00:00:00|56=TW|98=0|108=30|10=0|

# send two orders in sequence
I8=FIX.4.0|35=D|34=2|49=TW|52=<TIME>|56=ISLD|11=ID|21=3|38=100|40=1|54=1|55=INTC|
E8=FIX.4.0|9=81|35=D|34=2|49=ISLD|52=00000000-00:00:00|56=TW|11=ID|21=3|38=100|40=1|54=1|55=INTC|10=0|
I8=FIX.4.0|35=D|34=3|49=TW|52=<TIME>|56=ISLD|11=ID|21=3|38=100|40=1|54=1|55=INTC|
E8=FIX.4.0|9=81|35=D|34=3|49=ISLD|52=00000000-00:00:00|56=TW|11=ID|21=3|38=100|40=1|54=1|55=INTC|10=0|

# resend message 2 with no OrigSendingTime
I8=FIX.4.0|35=D|34=2|49=TW|52=<TIME>|56=ISLD|43=Y|11=ID|21=3|38=100|40=1|54=1|55=INTC|

# reject message
E8=FIX.4.0|9=80|35=3|34=4|49=ISLD|52=00000000-00:00:00|56=TW|45=2|58=Required tag missing (122)|10=0|

# make sure sequence number no incremented
I8=FIX.4.0|35=1|34=4|49=TW|52=<TIME>|56=ISLD|112=HELLO|
E8=FIX.4.0|9=55|35=0|34=5|49=ISLD|52=00000000-00:00:00|56=TW|112=HELLO|10=0|

# logout message
I8=FIX.4.0|35=5|34=5|49=TW|52=<TIME>|56=ISLD|
E8=FIX.4.0|9=45|35=5|34=6|49=ISLD|52=00000000-00:00:00|56=TW|10=0|
eDISCONNECT