# SenderCompID is invalid.  We must reject message and send a logout

iCONNECT
I8=FIX.4.0|35=A|34=1|49=TW|52=<TIME>|56=ISLD|98=0|108=30|
E8=FIX.4.0|9=57|35=A|34=1|49=ISLD|52=00000000-00:00:00|56=TW|98=0|108=30|10=0|

# send order with bad SenderCompID
I8=FIX.4.0|35=D|34=2|49=WT|52=<TIME>|56=ISLD|11=ID|21=3|38=100|40=1|54=1|55=INTC|

# reject message
E8=FIX.4.0|9=68|35=3|34=2|49=ISLD|52=00000000-00:00:00|56=TW|45=2|58=CompID problem|10=0|
# logout message
E8=FIX.4.0|9=45|35=5|34=3|49=ISLD|52=00000000-00:00:00|56=TW|10=0|
I8=FIX.4.0|35=5|34=3|49=TW|52=<TIME>|56=ISLD|
eDISCONNECT

# TargetCompID is invalid

iCONNECT
I8=FIX.4.0|35=A|34=1|49=TW|52=<TIME>|56=ISLD|98=0|108=30|
E8=FIX.4.0|9=57|35=A|34=1|49=ISLD|52=00000000-00:00:00|56=TW|98=0|108=30|10=0|

# send order with bad TargetCompID
I8=FIX.4.0|35=D|34=2|49=TW|52=<TIME>|56=DLSI|11=ID|21=3|38=100|40=1|54=1|55=INTC|

# reject message
E8=FIX.4.0|9=68|35=3|34=2|49=ISLD|52=00000000-00:00:00|56=TW|45=2|58=CompID problem|10=0|
# logout message
E8=FIX.4.0|9=45|35=5|34=3|49=ISLD|52=00000000-00:00:00|56=TW|10=0|
I8=FIX.4.0|35=5|34=3|49=TW|52=<TIME>|56=ISLD|
eDISCONNECT

# SenderCompID and TargetCompID is invalid

iCONNECT
I8=FIX.4.0|35=A|34=1|49=TW|52=<TIME>|56=ISLD|98=0|108=30|
E8=FIX.4.0|9=57|35=A|34=1|49=ISLD|52=00000000-00:00:00|56=TW|98=0|108=30|10=0|

# send order with bad SenderCompID and TargetCompID
I8=FIX.4.0|35=D|34=2|49=WT|52=<TIME>|56=DLSI|11=ID|21=3|38=100|40=1|54=1|55=INTC|

# reject message
E8=FIX.4.0|9=68|35=3|34=2|49=ISLD|52=00000000-00:00:00|56=TW|45=2|58=CompID problem|10=0|
# logout message
E8=FIX.4.0|9=45|35=5|34=3|49=ISLD|52=00000000-00:00:00|56=TW|10=0|
I8=FIX.4.0|35=5|34=3|49=TW|52=<TIME>|56=ISLD|
eDISCONNECT