# Message type is not supported by the application

iCONNECT
I8=FIX.4.0|35=A|34=1|49=TW40|52=<TIME>|56=ISLD|98=0|108=30|
E8=FIX.4.0|9=59|35=A|34=1|49=ISLD|52=00000000-00:00:00|56=TW40|98=0|108=30|10=0|

I8=FIX.4.0|35=8|34=2|49=TW40|52=<TIME>|56=ISLD|11=id|31=10.5|32=100|37=id|38=100|17=1|20=0|39=0|55=WLRI|54=1|14=0|6=0.0|
E8=FIX.4.0|9=80|35=3|34=2|49=ISLD|52=00000000-00:00:00|56=TW40|45=2|58=Unsupported message type|10=0|

# logout
I8=FIX.4.0|35=5|34=3|49=TW40|52=<TIME>|56=ISLD|
E8=FIX.4.0|9=47|35=5|34=3|49=ISLD|52=00000000-00:00:00|56=TW40|10=0|
eDISCONNECT
