# When we receive a valid logon, we must respond with one

iCONNECT
I8=FIXT.1.1|35=A|34=1|49=TW|52=<TIME>|56=ISLD|98=0|108=30|1137=8|
E8=FIXT.1.1|9=68|35=A|34=1|49=ISLD|52=00000000-00:00:00.000|56=TW|98=0|108=30|1137=8|10=0|

# logout message and response
I8=FIXT.1.1|35=5|34=2|49=TW|52=<TIME>|56=ISLD|
E8=FIXT.1.1|9=49|35=5|34=2|49=ISLD|52=00000000-00:00:00.000|56=TW|10=0|
eDISCONNECT

