# If the length of a logon message is invalid, we must disconnect

iCONNECT
I8=FIXT.1.1|9=40|35=A|34=1|49=TW|52=<TIME>|56=ISLD|98=0|108=30|1137=8|
eDISCONNECT