# If message sequence number is too high, send a resend request for
# missing messages

iCONNECT
I8=FIXT.1.1|35=A|34=1|49=TW|52=<TIME>|56=ISLD|98=0|108=30|1137=8|
E8=FIXT.1.1|9=68|35=A|34=1|49=ISLD|52=00000000-00:00:00.000|56=TW|98=0|108=30|1137=8|10=0|

I8=FIXT.1.1|35=0|34=2|49=TW|52=<TIME>|56=ISLD|
I8=FIXT.1.1|35=0|34=3|49=TW|52=<TIME>|56=ISLD|
I8=FIXT.1.1|35=0|34=4|49=TW|52=<TIME>|56=ISLD|

# Sending message 10 when last message send was 4
I8=FIXT.1.1|35=0|34=10|49=TW|52=<TIME>|56=ISLD|

# Resend request for messages 5 to 9
E8=FIXT.1.1|9=58|35=2|34=2|49=ISLD|52=00000000-00:00:00.000|56=TW|7=5|16=0|10=0|

# Send the messages
I8=FIXT.1.1|35=0|34=5|49=TW|52=<TIME>|56=ISLD|
I8=FIXT.1.1|35=0|34=6|49=TW|52=<TIME>|56=ISLD|
I8=FIXT.1.1|35=0|34=7|49=TW|52=<TIME>|56=ISLD|
I8=FIXT.1.1|35=0|34=8|49=TW|52=<TIME>|56=ISLD|
I8=FIXT.1.1|35=0|34=9|49=TW|52=<TIME>|56=ISLD|

# logout message and response
I8=FIXT.1.1|35=5|34=11|49=TW|52=<TIME>|56=ISLD|
E8=FIXT.1.1|9=49|35=5|34=3|49=ISLD|52=00000000-00:00:00.000|56=TW|10=0|

eDISCONNECT