# If a logout is received, send a logout

iCONNECT
I8=FIX.4.1|35=A|34=1|49=TW41|52=<TIME>|56=ISLD|98=0|108=30|
E8=FIX.4.1|9=59|35=A|34=1|49=ISLD|52=00000000-00:00:00|56=TW41|98=0|108=30|10=0|
I8=FIX.4.1|35=5|34=2|49=TW41|52=<TIME>|56=ISLD|
E8=FIX.4.1|9=47|35=5|34=2|49=ISLD|52=00000000-00:00:00|56=TW41|10=0|
eDISCONNECT