# Duplicate sequence number was received, and PossDup is set to 'Y'

iCONNECT
I8=FIX.4.1|35=A|34=1|49=TW|52=<TIME>|56=ISLD|98=0|108=30|
E8=FIX.4.1|9=57|35=A|34=1|49=ISLD|52=00000000-00:00:00|56=TW|98=0|108=30|10=7|
I8=FIX.4.1|35=0|34=2|49=TW|52=<TIME>|56=ISLD|
I8=FIX.4.1|35=0|34=2|49=TW|52=<TIME>|122=<TIME>|56=ISLD|43=Y|112=<TIME>|
I8=FIX.4.1|35=0|34=3|49=TW|52=<TIME>|56=ISLD|

# logout message and response
I8=FIX.4.1|35=5|34=4|49=TW|52=<TIME>|56=ISLD|
E8=FIX.4.1|9=45|35=5|34=2|49=ISLD|52=00000000-00:00:00|56=TW|10=0|

eDISCONNECT