# Send message with invalid MsgType

iCONNECT
I8=FIX.4.1|35=A|34=1|49=TW|52=<TIME>|56=ISLD|98=0|108=30|
E8=FIX.4.1|9=57|35=A|34=1|49=ISLD|52=00000000-00:00:00|56=TW|98=0|108=30|10=0|
I8=FIX.4.1|35=*|34=2|49=TW|52=<TIME>|56=ISLD|
# reject
E8=FIX.4.1|9=69|35=3|34=2|49=ISLD|52=00000000-00:00:00|56=TW|45=2|58=Invalid MsgType|10=0|

# logoff
I8=FIX.4.1|35=5|34=3|49=TW|52=<TIME>|56=ISLD|
E8=FIX.4.1|9=45|35=5|34=3|49=ISLD|52=00000000-00:00:00|56=TW|10=0|
eDISCONNECT