# ResendRequest message requesting Application messages

iCONNECT
I8=FIX.4.1|35=A|34=1|49=TW|52=<TIME>|56=ISLD|98=0|108=30|
E8=FIX.4.1|9=57|35=A|34=1|49=ISLD|52=00000000-00:00:00|56=TW|98=0|108=30|10=0|

I8=FIX.4.1|35=D|34=2|49=TW|52=<TIME>|56=ISLD|11=ID|21=3|38=100|40=1|54=1|55=INTC|
E8=FIX.4.1|9=81|35=D|34=2|49=ISLD|52=00000000-00:00:00|56=TW|11=ID|21=3|38=100|40=1|54=1|55=INTC|10=0|
I8=FIX.4.1|35=D|34=3|49=TW|52=<TIME>|56=ISLD|11=ID|21=3|38=100|40=1|54=1|55=CDG|
E8=FIX.4.1|9=80|35=D|34=3|49=ISLD|52=00000000-00:00:00|56=TW|11=ID|21=3|38=100|40=1|54=1|55=CDG|10=0|
I8=FIX.4.1|35=D|34=4|49=TW|52=<TIME>|56=ISLD|11=ID|21=3|38=100|40=1|54=1|55=IVP|
E8=FIX.4.1|9=80|35=D|34=4|49=ISLD|52=00000000-00:00:00|56=TW|11=ID|21=3|38=100|40=1|54=1|55=IVP|10=0|

# Only application messages requested, all should be resent
I8=FIX.4.1|35=2|34=5|49=TW|52=<TIME>|56=ISLD|7=2|16=4|
E8=FIX.4.1|9=108|35=D|34=2|43=Y|49=ISLD|52=00000000-00:00:00|56=TW|122=00000000-00:00:00|11=ID|21=3|38=100|40=1|54=1|55=INTC|10=0|
E8=FIX.4.1|9=107|35=D|34=3|43=Y|49=ISLD|52=00000000-00:00:00|56=TW|122=00000000-00:00:00|11=ID|21=3|38=100|40=1|54=1|55=CDG|10=0|
E8=FIX.4.1|9=107|35=D|34=4|43=Y|49=ISLD|52=00000000-00:00:00|56=TW|122=00000000-00:00:00|11=ID|21=3|38=100|40=1|54=1|55=IVP|10=0|

# make sure our seq numbers are still correct
I8=FIX.4.1|35=1|34=6|49=TW|52=<TIME>|56=ISLD|112=HELLO|
E8=FIX.4.1|9=55|35=0|34=5|49=ISLD|52=00000000-00:00:00|56=TW|112=HELLO|10=0|

# Request message to 999999 (infinity)
I8=FIX.4.1|35=2|34=7|49=TW|52=<TIME>|56=ISLD|7=2|16=999999|
E8=FIX.4.1|9=108|35=D|34=2|43=Y|49=ISLD|52=00000000-00:00:00|56=TW|122=00000000-00:00:00|11=ID|21=3|38=100|40=1|54=1|55=INTC|10=0|
E8=FIX.4.1|9=107|35=D|34=3|43=Y|49=ISLD|52=00000000-00:00:00|56=TW|122=00000000-00:00:00|11=ID|21=3|38=100|40=1|54=1|55=CDG|10=0|
E8=FIX.4.1|9=107|35=D|34=4|43=Y|49=ISLD|52=00000000-00:00:00|56=TW|122=00000000-00:00:00|11=ID|21=3|38=100|40=1|54=1|55=IVP|10=0|
E8=FIX.4.1|9=83|35=4|34=5|43=Y|49=ISLD|52=20040227-19:56:48|56=TW|122=00000000-00:00:00|36=6|123=Y|10=068|

# logout message and response
I8=FIX.4.1|35=5|34=8|49=TW|52=<TIME>|56=ISLD|
E8=FIX.4.1|9=45|35=5|34=6|49=ISLD|52=00000000-00:00:00|56=TW|10=0|
eDISCONNECT