# Send message with invalid MsgType

iCONNECT
I8=FIXT.1.1|35=A|34=1|49=TW50SP2|52=<TIME>|56=ISLD|98=0|108=30|1137=9|
E8=FIXT.1.1|9=73|35=A|34=1|49=ISLD|52=00000000-00:00:00.000|56=TW50SP2|98=0|108=30|1137=9|10=0|

I8=FIXT.1.1|35=*|34=2|49=TW50SP2|52=<TIME>|56=ISLD|
# reject
E8=FIXT.1.1|9=91|35=3|34=2|49=ISLD|52=00000000-00:00:00.000|56=TW50SP2|45=2|58=Invalid MsgType|372=*|373=11|10=0|

# logoff
I8=FIXT.1.1|35=5|34=3|49=TW50SP2|52=<TIME>|56=ISLD|
E8=FIXT.1.1|9=54|35=5|34=3|49=ISLD|52=00000000-00:00:00.000|56=TW50SP2|10=0|
eDISCONNECT