# Message type is not supported by the application

iCONNECT
I8=FIXT.1.1|35=A|34=1|49=TW50SP2|52=<TIME>|56=ISLD|98=0|108=30|1137=9|
E8=FIXT.1.1|9=73|35=A|34=1|49=ISLD|52=00000000-00:00:00.000|56=TW50SP2|98=0|108=30|1137=9|10=0|

I8=FIXT.1.1|35=8|34=2|49=TW50SP2|52=<TIME>|56=ISLD|37=id|17=id|150=0|39=0|55=WLRI|54=1|151=100|14=0|6=0.0|
E8=FIXT.1.1|9=106|35=j|34=2|49=ISLD|52=00000000-00:00:00.000|56=TW50SP2|45=2|58=Unsupported Message Type|372=8|380=3|1137=9|10=0|

# logout
I8=FIXT.1.1|35=5|34=3|49=TW50SP2|52=<TIME>|56=ISLD|
E8=FIXT.1.1|9=54|35=5|34=3|49=ISLD|52=00000000-00:00:00.000|56=TW50SP2|10=0|
eDISCONNECT
