# If message has incorrect checksum, it should be ignored

iCONNECT
I8=FIXT.1.1|35=A|34=1|49=TW50SP2|52=<TIME>|56=ISLD|98=0|108=30|1137=9|
E8=FIXT.1.1|9=73|35=A|34=1|49=ISLD|52=00000000-00:00:00.000|56=TW50SP2|98=0|108=30|1137=9|10=7|

# Incorrect checksum
I8=FIXT.1.1|35=0|34=2|49=TW50SP2|52=<TIME>|56=ISLD|10=256|
# Correct checksum
I8=FIXT.1.1|35=0|34=2|49=TW50SP2|52=<TIME>|56=ISLD|
# Incorrect checksum
I8=FIXT.1.1|35=D|34=3|49=TW50SP2|52=<TIME>|56=ISLD|11=ID|21=3|40=1|54=1|55=INTC|10=256|
I8=FIXT.1.1|35=0|34=4|49=TW50SP2|52=<TIME>|56=ISLD|

# Resend request for missed message
E8=FIXT.1.1|9=63|35=2|34=2|49=ISLD|52=00000000-00:00:00.000|56=TW50SP2|7=3|16=0|10=0|
I8=FIXT.1.1|35=D|34=3|49=TW50SP2|52=<TIME>|56=ISLD|11=ID|21=3|40=1|54=1|55=INTC|60=<TIME>|
E8=FIXT.1.1|9=104|35=D|34=3|49=ISLD|52=00000000-00:00:00.000|56=TW50SP2|11=ID|21=3|40=1|54=1|55=INTC|60=00000000-00:00:00|

# logout message and response
I8=FIXT.1.1|35=5|34=4|49=TW50SP2|52=<TIME>|56=ISLD|
E8=FIXT.1.1|9=54|35=5|34=4|49=ISLD|52=00000000-00:00:00.000|56=TW50SP2|10=0|

eDISCONNECT