# If a test request is received, a matching heartbeat should be sent

iCONNECT
I8=FIXT.1.1|35=A|34=1|49=TW50SP2|52=<TIME>|56=ISLD|98=0|108=30|1137=9|
E8=FIXT.1.1|9=73|35=A|34=1|49=ISLD|52=00000000-00:00:00.000|56=TW50SP2|98=0|108=30|1137=9|10=0|

I8=FIXT.1.1|35=1|34=2|49=TW50SP2|52=<TIME>|56=ISLD|112=HELLO|
E8=FIXT.1.1|9=64|35=0|34=2|49=ISLD|52=00000000-00:00:00.000|56=TW50SP2|112=HELLO|10=0|

# logout message and response
I8=FIXT.1.1|35=5|34=3|49=TW50SP2|52=<TIME>|56=ISLD|
E8=FIXT.1.1|9=54|35=5|34=3|49=ISLD|52=00000000-00:00:00.000|56=TW50SP2|10=0|
eDISCONNECT