# If a heartbeat is not sent to the target, a test request should be received
# and we should eventually timeout

iCONNECT
I8=FIXT.1.1|35=A|34=1|49=TW50SP2|52=<TIME>|56=ISLD|98=0|108=6|1137=9|
E8=FIXT.1.1|9=72|35=A|34=1|49=ISLD|52=00000000-00:00:00.000|56=TW50SP2|98=0|108=6|1137=9|10=0|

# wait for two heartbeats
E8=FIXT.1.1|9=54|35=0|34=2|49=ISLD|52=00000000-00:00:00.000|56=TW50SP2|10=0|
I8=FIXT.1.1|35=0|34=2|49=TW50SP2|52=<TIME>|56=ISLD|
E8=FIXT.1.1|9=54|35=0|34=3|49=ISLD|52=00000000-00:00:00.000|56=TW50SP2|10=0|

# wait for test request
E8=FIXT.1.1|9=63|35=1|34=4|49=ISLD|52=00000000-00:00:00.000|56=TW50SP2|112=TEST|10=210|
I8=FIXT.1.1|35=0|34=3|49=TW50SP2|52=<TIME>|56=ISLD|112=TEST|

# wait for two heartbeats
E8=FIXT.1.1|9=54|35=0|34=5|49=ISLD|52=00000000-00:00:00.000|56=TW50SP2|10=0|
I8=FIXT.1.1|35=0|34=4|49=TW50SP2|52=<TIME>|56=ISLD|
E8=FIXT.1.1|9=54|35=0|34=6|49=ISLD|52=00000000-00:00:00.000|56=TW50SP2|10=0|

# wait for test request and disconnect
E8=FIXT.1.1|9=63|35=1|34=7|49=ISLD|52=00000000-00:00:00.000|56=TW50SP2|112=TEST|10=213|
eDISCONNECT
