# SequenceReset where NewSeqNo is equal to the expected inbound MsgSeqNum

iCONNECT
I8=FIX.4.2|35=A|34=1|49=TW|52=<TIME>|56=ISLD|98=0|108=30|
E8=FIX.4.2|9=61|35=A|34=1|49=ISLD|52=00000000-00:00:00.000|56=TW|98=0|108=30|10=0|

# sequence reset without gap fill flag (default to N)
I8=FIX.4.2|35=4|34=0|49=TW|52=<TIME>|56=ISLD|36=2|
I8=FIX.4.2|35=1|34=2|49=TW|52=<TIME>|56=ISLD|112=HELLO|
E8=FIX.4.2|9=59|35=0|34=2|49=ISLD|52=00000000-00:00:00.000|56=TW|112=HELLO|10=0|

# sequence reset with gap fill flag set to N
I8=FIX.4.2|35=4|34=0|49=TW|52=<TIME>|56=ISLD|36=4|123=N|
I8=FIX.4.2|35=1|34=4|49=TW|52=<TIME>|56=ISLD|112=HELLO|
E8=FIX.4.2|9=59|35=0|34=3|49=ISLD|52=00000000-00:00:00.000|56=TW|112=HELLO|10=0|

iDISCONNECT