# Duplicate sequence number was not received, and PossDup is set to 'Y'

iCONNECT
I8=FIX.4.2|35=A|34=1|49=TW|52=<TIME>|56=ISLD|98=0|108=30|
E8=FIX.4.2|9=61|35=A|34=1|49=ISLD|52=00000000-00:00:00.000|56=TW|98=0|108=30|10=0|
I8=FIX.4.2|35=0|34=2|49=TW|52=<TIME>|56=ISLD|

# Already received, this should be ignored
I8=FIX.4.2|35=0|34=2|49=TW|52=<TIME>|122=<TIME>|56=ISLD|43=Y|
# Not yet received, this should be processed
I8=FIX.4.2|35=0|34=3|49=TW|52=<TIME>|122=<TIME>|56=ISLD|43=Y|

# logout message and response
I8=FIX.4.2|35=5|34=4|49=TW|52=<TIME>|56=ISLD|
E8=FIX.4.2|9=49|35=5|34=2|49=ISLD|52=00000000-00:00:00.000|56=TW|10=0|

eDISCONNECT