# Send messages BeginString, BodyLength and MsgType in wrong order

iCONNECT
I8=FIX.4.2|35=A|34=1|49=TW|52=<TIME>|56=ISLD|98=0|108=30|
E8=FIX.4.2|9=61|35=A|34=1|49=ISLD|52=00000000-00:00:00.000|56=TW|98=0|108=30|10=0|

# 35 is first, should be second
I35=0|8=FIX.4.2|9=29|34=2|49=TW|52=<TIME>|56=ISLD|10=121|
I8=FIX.4.2|35=1|34=2|49=TW|52=<TIME>|56=ISLD|112=HELLO|
E8=FIX.4.2|9=59|35=0|34=2|49=ISLD|52=00000000-00:00:00.000|56=TW|112=HELLO|10=0|

# 34 is second, should be third
I8=FIX.4.2|34=3|35=0|49=TW|52=<TIME>|56=ISLD|
I8=FIX.4.2|35=1|34=3|49=TW|52=<TIME>|56=ISLD|112=HELLO|
E8=FIX.4.2|9=59|35=0|34=3|49=ISLD|52=00000000-00:00:00.000|56=TW|112=HELLO|10=0|

# logout message and response
I8=FIX.4.2|35=5|34=4|49=TW|52=<TIME>|56=ISLD|
E8=FIX.4.2|9=49|35=5|34=4|49=ISLD|52=00000000-00:00:00.000|56=TW|10=0|
eDISCONNECT