# ResendRequest message requesting Application messages

iCONNECT
I8=FIX.4.2|35=A|34=1|49=TW|52=<TIME>|56=ISLD|98=0|108=30|
E8=FIX.4.2|9=61|35=A|34=1|49=ISLD|52=00000000-00:00:00.000|56=TW|98=0|108=30|10=0|

I8=FIX.4.2|35=D|34=2|49=TW|52=<TIME>|56=ISLD|11=ID|21=3|40=1|54=1|55=INTC|60=<TIME>|
E8=FIX.4.2|9=99|35=D|34=2|49=ISLD|52=00000000-00:00:00.000|56=TW|11=ID|21=3|40=1|54=1|55=INTC|60=00000000-00:00:00|10=0|
I8=FIX.4.2|35=D|34=3|49=TW|52=<TIME>|56=ISLD|11=ID|21=3|40=1|54=1|55=CDG|60=<TIME>|
E8=FIX.4.2|9=98|35=D|34=3|49=ISLD|52=00000000-00:00:00.000|56=TW|11=ID|21=3|40=1|54=1|55=CDG|60=00000000-00:00:00|10=0|
I8=FIX.4.2|35=D|34=4|49=TW|52=<TIME>|56=ISLD|11=ID|21=3|40=1|54=1|55=IVP|60=<TIME>|
E8=FIX.4.2|9=98|35=D|34=4|49=ISLD|52=00000000-00:00:00.000|56=TW|11=ID|21=3|40=1|54=1|55=IVP|60=00000000-00:00:00|10=0|

# Only application messages requested, all should be resent
I8=FIX.4.2|35=2|34=5|49=TW|52=<TIME>|56=ISLD|7=2|16=4|
E8=FIX.4.2|9=130|35=D|34=2|43=Y|49=ISLD|52=00000000-00:00:00.000|56=TW|122=00000000-00:00:00.000|11=ID|21=3|40=1|54=1|55=INTC|60=00000000-00:00:00|10=0|
E8=FIX.4.2|9=129|35=D|34=3|43=Y|49=ISLD|52=00000000-00:00:00.000|56=TW|122=00000000-00:00:00.000|11=ID|21=3|40=1|54=1|55=CDG|60=00000000-00:00:00|10=0|
E8=FIX.4.2|9=129|35=D|34=4|43=Y|49=ISLD|52=00000000-00:00:00.000|56=TW|122=00000000-00:00:00.000|11=ID|21=3|40=1|54=1|55=IVP|60=00000000-00:00:00|10=0|

# make sure our seq numbers are still correct
I8=FIX.4.2|35=1|34=6|49=TW|52=<TIME>|56=ISLD|112=HELLO|
E8=FIX.4.2|9=59|35=0|34=5|49=ISLD|52=00000000-00:00:00.000|56=TW|112=HELLO|10=0|

# Request message to 0 (infinity)
I8=FIX.4.2|35=2|34=7|49=TW|52=<TIME>|56=ISLD|7=2|16=0|
E8=FIX.4.2|9=130|35=D|34=2|43=Y|49=ISLD|52=00000000-00:00:00.000|56=TW|122=00000000-00:00:00.000|11=ID|21=3|40=1|54=1|55=INTC|60=00000000-00:00:00|10=0|
E8=FIX.4.2|9=129|35=D|34=3|43=Y|49=ISLD|52=00000000-00:00:00.000|56=TW|122=00000000-00:00:00.000|11=ID|21=3|40=1|54=1|55=CDG|60=00000000-00:00:00|10=0|
E8=FIX.4.2|9=129|35=D|34=4|43=Y|49=ISLD|52=00000000-00:00:00.000|56=TW|122=00000000-00:00:00.000|11=ID|21=3|40=1|54=1|55=IVP|60=00000000-00:00:00|10=0|
E8=FIX.4.2|9=91|35=4|34=5|43=Y|49=ISLD|52=20040227-19:56:48|56=TW|122=00000000-00:00:00.000|36=6|123=Y|10=068|

# logout message and response
I8=FIX.4.2|35=5|34=8|49=TW|52=<TIME>|56=ISLD|
E8=FIX.4.2|9=49|35=5|34=6|49=ISLD|52=00000000-00:00:00.000|56=TW|10=0|
eDISCONNECT
