# ResendRequest message requesting Admin messages

iCONNECT
I8=FIX.4.2|35=A|34=1|49=TW|52=<TIME>|56=ISLD|98=0|108=30|
E8=FIX.4.2|9=61|35=A|34=1|49=ISLD|52=00000000-00:00:00.000|56=TW|98=0|108=30|10=0|
I8=FIX.4.2|35=1|34=2|49=TW|52=<TIME>|56=ISLD|112=HELLO|
E8=FIX.4.2|9=59|35=0|34=2|49=ISLD|52=00000000-00:00:00.000|56=TW|112=HELLO|10=0|
I8=FIX.4.2|35=1|34=3|49=TW|52=<TIME>|56=ISLD|112=HELLO|
E8=FIX.4.2|9=59|35=0|34=3|49=ISLD|52=00000000-00:00:00.000|56=TW|112=HELLO|10=0|
I8=FIX.4.2|35=1|34=4|49=TW|52=<TIME>|56=ISLD|112=HELLO|
E8=FIX.4.2|9=59|35=0|34=4|49=ISLD|52=00000000-00:00:00.000|56=TW|112=HELLO|10=0|

# Only admin messages requested, expect one gap fill
I8=FIX.4.2|35=2|34=5|49=TW|52=<TIME>|56=ISLD|7=1|16=4|
E8=FIX.4.2|9=91|35=4|34=1|43=Y|49=ISLD|52=00000000-00:00:00.000|56=TW|122=00000000-00:00:00.000|36=5|123=Y|10=0|

# make sure our seq numbers are still correct
I8=FIX.4.2|35=1|34=6|49=TW|52=<TIME>|56=ISLD|112=HELLO|
E8=FIX.4.2|9=59|35=0|34=5|49=ISLD|52=00000000-00:00:00.000|56=TW|112=HELLO|10=0|

# Request message to 0 (infinity)
I8=FIX.4.2|35=2|34=5|49=TW|52=<TIME>|56=ISLD|7=1|16=0|
E8=FIX.4.2|9=91|35=4|34=1|43=Y|49=ISLD|52=00000000-00:00:00.000|56=TW|122=00000000-00:00:00.000|36=6|123=Y|10=0|

# logout message and response
I8=FIX.4.2|35=5|34=6|49=TW|52=<TIME>|56=ISLD|
E8=FIX.4.2|9=49|35=5|34=6|49=ISLD|52=00000000-00:00:00.000|56=TW|10=0|
eDISCONNECT