8=FIX.4.2|9=10|35=A|34=1|10=180|8=FIX.4.2|9=10|35=0|34=2|10=164|8=FIX.4.2|9=10|35=D|34=3|10=185|8=FIX.4.2|9=18|35=8|58=Some Text|10=225|8=FIX.4.2|9=20|35=8|58="Some Text"|10=030|8=FIX.4.2|9=22|35=8|58='"Some Text"'|10=110|8=FIX.4.2|9=20|35=8|58=\Some Text\|10=146|