eCONNECT
E8=FIX.4.2|9=57|35=A|34=1|49=TW|52=00000000-00:00:00|56=ISLD|98=0|108=30|10=0|
R8=FIX.4.2|35=A|34=1|49=ISLD|52=<TIME>|56=TW|98=0|108=30|
R8=FIX.4.2|35=5|34=2|49=ISLD|52=<TIME>|56=TW|
E8=FIX.4.2|9=45|35=5|34=2|49=TW|52=00000000-00:00:00|56=ISLD|10=0|
eDISCONNECT
