# GapFill where MsgSeqNum is greater than the expected inbound MsgSeqNum

iCONNECT
I8=FIX.4.3|35=A|34=1|49=TW|52=<TIME>|56=ISLD|98=0|108=30|
E8=FIX.4.3|9=61|35=A|34=1|49=ISLD|52=00000000-00:00:00.000|56=TW|98=0|108=30|10=0|

# sequence reset with gap fill flag set to Y
I8=FIX.4.3|35=4|34=10|49=TW|52=<TIME>|56=ISLD|36=20|123=Y|
I8=FIX.4.3|35=1|34=20|49=TW|52=<TIME>|56=ISLD|112=HELLO|
# Resend request for messages 2 to INFINITY
E8=FIX.4.3|9=58|35=2|34=2|49=ISLD|52=00000000-00:00:00.000|56=TW|7=2|16=0|10=0|

# logout message and response
I8=FIX.4.3|35=5|34=2|49=TW|52=<TIME>|56=ISLD|
E8=FIX.4.3|9=49|35=5|34=3|49=ISLD|52=00000000-00:00:00.000|56=TW|10=0|
eDISCONNECT
