# When we receive a valid logon, we must respond with one

iCONNECT
I8=FIX.4.3|35=A|34=1|49=TW|52=<TIME>|56=ISLD|98=0|108=30|
E8=FIX.4.3|9=57|35=A|34=1|49=ISLD|52=<TIME>|56=TW|98=0|108=30|10=0|
iDISCONNECT
