# If the length of a logon message is invalid, we must disconnect

iCONNECT
I8=FIX.4.3|9=40|35=A|34=1|49=TW|52=<TIME>|56=ISLD|98=0|108=30|
eDISCONNECT