# We should expect heartbeats if we wait around

iCONNECT
I8=FIX.4.3|35=A|34=1|49=TW|52=<TIME>|56=ISLD|98=0|108=2|
E8=FIX.4.3|9=56|35=A|34=1|49=ISLD|52=00000000-00:00:00|56=TW|98=0|108=2|10=0|
E8=FIX.4.3|9=45|35=0|34=2|49=ISLD|52=00000000-00:00:00|56=TW|10=0|
I8=FIX.4.3|9=45|35=0|34=2|49=TW|52=<TIME>|56=ISLD|
E8=FIX.4.3|9=45|35=0|34=3|49=ISLD|52=00000000-00:00:00|56=TW|10=0|
I8=FIX.4.3|9=45|35=0|34=3|49=TW|52=<TIME>|56=ISLD|
iDISCONNECT
