# Increment MsgSeqNum if a reject is sent

iCONNECT
I8=FIX.4.3|35=A|34=1|49=TW|52=<TIME>|56=ISLD|98=0|108=30|
E8=FIX.4.3|9=61|35=A|34=1|49=ISLD|52=00000000-00:00:00.000|56=TW|98=0|108=30|10=0|

# reject
I8=FIX.4.3|35=3|34=2|49=TW|52=<TIME>|56=ISLD|45=1|

I8=FIX.4.3|35=5|34=3|49=TW|52=<TIME>|56=ISLD|
E8=FIX.4.3|9=49|35=5|34=2|49=ISLD|52=00000000-00:00:00.000|56=TW|10=0|
eDISCONNECT