# GapFill where MsgSeqNum is equal to the expected inbound MsgSeqNum

iCONNECT
I8=FIXT.1.1|35=A|34=1|49=TW|52=<TIME>|56=ISLD|98=0|108=30|1137=7|
E8=FIXT.1.1|9=68|35=A|34=1|49=ISLD|52=00000000-00:00:00.000|56=TW|98=0|108=30|1137=7|10=0|

# sequence reset with gap fill flag set to Y
I8=FIXT.1.1|35=4|34=2|49=TW|52=<TIME>|56=ISLD|36=20|123=Y|
I8=FIXT.1.1|35=1|34=20|49=TW|52=<TIME>|56=ISLD|112=HELLO|
E8=FIXT.1.1|9=59|35=0|34=2|49=ISLD|52=00000000-00:00:00.000|56=TW|112=HELLO|10=0|

# logout message and response
I8=FIXT.1.1|35=5|34=3|49=TW|52=<TIME>|56=ISLD|
E8=FIXT.1.1|9=49|35=5|34=3|49=ISLD|52=00000000-00:00:00.000|56=TW|10=0|
eDISCONNECT