# SequenceReset where NewSeqNo is less than the expected inbound MsgSeqNum

iCONNECT
I8=FIXT.1.1|35=A|34=1|49=TW50|52=<TIME>|56=ISLD|98=0|108=30|1137=7|
E8=FIXT.1.1|9=70|35=A|34=1|49=ISLD|52=00000000-00:00:00.000|56=TW50|98=0|108=30|1137=7|10=0|

# sequence reset without gap fill flag (default to N)
I8=FIXT.1.1|35=4|34=0|49=TW50|52=<TIME>|56=ISLD|36=1|
E8=FIXT.1.1|9=118|35=3|34=2|49=ISLD|52=00000000-00:00:00.000|56=TW50|45=0|58=Value is incorrect (out of range) for this tag|372=4|373=5|10=0|

I8=FIXT.1.1|35=1|34=2|49=TW50|52=<TIME>|56=ISLD|112=HELLO|
E8=FIXT.1.1|9=61|35=0|34=3|49=ISLD|52=00000000-00:00:00.000|56=TW50|112=HELLO|10=0|

# sequence reset without gap fill flag (default to N)
I8=FIXT.1.1|35=4|34=0|49=TW50|52=<TIME>|56=ISLD|36=1|123=N|
E8=FIXT.1.1|9=118|35=3|34=4|49=ISLD|52=00000000-00:00:00.000|56=TW50|45=0|58=Value is incorrect (out of range) for this tag|372=4|373=5|10=0|

I8=FIXT.1.1|35=1|34=3|49=TW50|52=<TIME>|56=ISLD|112=HELLO|
E8=FIXT.1.1|9=61|35=0|34=5|49=ISLD|52=00000000-00:00:00.000|56=TW50|112=HELLO|10=0|

# logout message and response
I8=FIXT.1.1|35=5|34=4|49=TW50|52=<TIME>|56=ISLD|
E8=FIXT.1.1|9=51|35=5|34=6|49=ISLD|52=00000000-00:00:00.000|56=TW50|10=0|
eDISCONNECT
