# if the message sequence number is too high, respond with long and send
# resend request

iCONNECT
I8=FIXT.1.1|35=A|34=5|49=TW50|52=<TIME>|56=ISLD|98=0|108=30|1137=7|
E8=FIXT.1.1|9=70|35=A|34=1|49=ISLD|52=00000000-00:00:00.000|56=TW50|98=0|108=30|1137=7|10=0|

E8=FIXT.1.1|9=60|35=2|34=2|49=ISLD|52=00000000-00:00:00.000|56=TW50|7=1|16=0|10=0|

# logout message and response
I8=FIXT.1.1|35=5|34=6|49=TW50|52=<TIME>|56=ISLD|
E8=FIXT.1.1|9=51|35=5|34=3|49=ISLD|52=00000000-00:00:00.000|56=TW50|10=0|
eDISCONNECT
