# If message is garbled, it should be ignored

iCONNECT
I8=FIXT.1.1|35=A|34=1|49=TW50|52=<TIME>|56=ISLD|98=0|108=30|1137=7|
E8=FIXT.1.1|35=A|34=1|49=ISLD|52=00000000-00:00:00.000|56=TW50|98=0|108=30|1137=7|

# Garbled message
I8=FIXT.1.1|9=52|35=0|34=2|4garbled9=TW|52=<TIME>|56=ISLD|10=0|
# Corrected message
I8=FIXT.1.1|35=0|34=2|49=TW50|52=<TIME>|56=ISLD|

# Garbled message
I8=FIXT.1.1|9=81|35=D|34=3|49garbled=TW|52=<TIME>|56=ISLD|11=ID|21=3|40=1|54=1|55=INTC|10=0|
# Correct message with new sequence number
I8=FIXT.1.1|35=0|34=4|49=TW50|52=<TIME>|56=ISLD|

# Resend request for missed message
E8=FIXT.1.1|9=60|35=2|34=2|49=ISLD|52=00000000-00:00:00.000|56=TW50|7=3|16=0|10=0|
# Send requested message
I8=FIXT.1.1|35=D|34=3|49=TW50|52=<TIME>|56=ISLD|11=ID|21=3|40=1|54=1|55=INTC|60=<TIME>|
E8=FIXT.1.1|9=101|35=D|34=3|49=ISLD|52=00000000-00:00:00.000|56=TW50|11=ID|21=3|40=1|54=1|55=INTC|60=00000000-00:00:00|10=0|

# logout message and response
I8=FIXT.1.1|35=5|34=5|49=TW50|52=<TIME>|56=ISLD|
E8=FIXT.1.1|9=51|35=5|34=4|49=ISLD|52=00000000-00:00:00.000|56=TW50|10=0|

eDISCONNECT