# Send message with invalid MsgType

iCONNECT
I8=FIXT.1.1|35=A|34=1|49=TW50|52=<TIME>|56=ISLD|98=0|108=30|1137=7|
E8=FIXT.1.1|9=70|35=A|34=1|49=ISLD|52=00000000-00:00:00.000|56=TW50|98=0|108=30|1137=7|10=0|

I8=FIXT.1.1|35=*|34=2|49=TW50|52=<TIME>|56=ISLD|
# reject
E8=FIXT.1.1|9=88|35=3|34=2|49=ISLD|52=00000000-00:00:00.000|56=TW50|45=2|58=Invalid MsgType|372=*|373=11|10=0|

# logoff
I8=FIXT.1.1|35=5|34=3|49=TW50|52=<TIME>|56=ISLD|
E8=FIXT.1.1|9=51|35=5|34=3|49=ISLD|52=00000000-00:00:00.000|56=TW50|10=0|
eDISCONNECT