# If message sequence number is too high, send a resend request for
# missing messages

iCONNECT
I8=FIXT.1.1|35=A|34=1|49=TW|52=<TIME>|56=ISLD|98=0|108=30|1137=7|
E8=FIXT.1.1|9=68|35=A|34=1|49=ISLD|52=00000000-00:00:00.000|56=TW|98=0|108=30|1137=7|10=0|

I8=FIXT.1.1|35=0|34=2|49=TW|52=<TIME>|56=ISLD|
I8=FIXT.1.1|35=0|34=3|49=TW|52=<TIME>|56=ISLD|
I8=FIXT.1.1|35=0|34=4|49=TW|52=<TIME>|56=ISLD|
I8=FIXT.1.1|35=0|34=5|49=TW|52=<TIME>|56=ISLD|
I8=FIXT.1.1|35=0|34=6|49=TW|52=<TIME>|56=ISLD|
I8=FIXT.1.1|35=0|34=7|49=TW|52=<TIME>|56=ISLD|
I8=FIXT.1.1|35=0|34=8|49=TW|52=<TIME>|56=ISLD|
I8=FIXT.1.1|35=0|34=9|49=TW|52=<TIME>|56=ISLD|

#Send TestRequest expect to receive HeartBeat
I8=FIXT.1.1|35=1|34=10|49=TW|52=<TIME>|56=ISLD|112=1|
E8=FIXT.1.1|9=55|35=0|34=2|49=ISLD|52=<TIME>|56=TW|112=1|

#send a Logon with ResetSeqNumFlag set to Y and with MsgSeqNum of 1
I8=FIXT.1.1|35=A|34=1|49=TW|52=<TIME>|56=ISLD|98=0|108=30|141=Y|1137=7|
#Expect a response with a Logon with ResetSeqNumFlag set to Y and with MsgSeqNum of 1.
E8=FIXT.1.1|9=74|35=A|34=1|49=ISLD|52=00000000-00:00:00.000|56=TW|98=0|108=30|141=Y|1137=7|10=0|

#Send TestRequest (MsgSeqNum = 2) expect to receive HeartBeat (MsgSeqNum = 2)
I8=FIXT.1.1|35=1|34=2|49=TW|52=<TIME>|56=ISLD|112=1|
E8=FIXT.1.1|9=55|35=0|34=2|49=ISLD|52=<TIME>|56=TW|112=1|

# logout message and response
I8=FIXT.1.1|35=5|34=3|49=TW|52=<TIME>|56=ISLD|
E8=FIXT.1.1|9=49|35=5|34=3|49=ISLD|52=00000000-00:00:00.000|56=TW|10=0|

eDISCONNECT